{"abi":[{"type":"constructor","inputs":[{"name":"factory","type":"address","internalType":"contract IEscrowFactory"},{"name":"lop","type":"address","internalType":"contract IOrderMixin"},{"name":"initialOwner","type":"address","internalType":"address"}],"stateMutability":"nonpayable"},{"type":"receive","stateMutability":"payable"},{"type":"function","name":"arbitraryCalls","inputs":[{"name":"targets","type":"address[]","internalType":"address[]"},{"name":"arguments","type":"bytes[]","internalType":"bytes[]"}],"outputs":[],"stateMutability":"nonpayable"},{"type":"function","name":"cancel","inputs":[{"name":"escrow","type":"address","internalType":"contract IEscrow"},{"name":"immutables","type":"tuple","internalType":"struct IBaseEscrow.Immutables","components":[{"name":"orderHash","type":"bytes32","internalType":"bytes32"},{"name":"hashlock","type":"bytes32","internalType":"bytes32"},{"name":"maker","type":"uint256","internalType":"Address"},{"name":"taker","type":"uint256","internalType":"Address"},{"name":"token","type":"uint256","internalType":"Address"},{"name":"amount","type":"uint256","internalType":"uint256"},{"name":"safetyDeposit","type":"uint256","internalType":"uint256"},{"name":"timelocks","type":"uint256","internalType":"Timelocks"}]}],"outputs":[],"stateMutability":"nonpayable"},{"type":"function","name":"deployDst","inputs":[{"name":"dstImmutables","type":"tuple","internalType":"struct IBaseEscrow.Immutables","components":[{"name":"orderHash","type":"bytes32","internalType":"bytes32"},{"name":"hashlock","type":"bytes32","internalType":"bytes32"},{"name":"maker","type":"uint256","internalType":"Address"},{"name":"taker","type":"uint256","internalType":"Address"},{"name":"token","type":"uint256","internalType":"Address"},{"name":"amount","type":"uint256","internalType":"uint256"},{"name":"safetyDeposit","type":"uint256","internalType":"uint256"},{"name":"timelocks","type":"uint256","internalType":"Timelocks"}]},{"name":"srcCancellationTimestamp","type":"uint256","internalType":"uint256"}],"outputs":[],"stateMutability":"payable"},{"type":"function","name":"deploySrc","inputs":[{"name":"immutables","type":"tuple","internalType":"struct IBaseEscrow.Immutables","components":[{"name":"orderHash","type":"bytes32","internalType":"bytes32"},{"name":"hashlock","type":"bytes32","internalType":"bytes32"},{"name":"maker","type":"uint256","internalType":"Address"},{"name":"taker","type":"uint256","internalType":"Address"},{"name":"token","type":"uint256","internalType":"Address"},{"name":"amount","type":"uint256","internalType":"uint256"},{"name":"safetyDeposit","type":"uint256","internalType":"uint256"},{"name":"timelocks","type":"uint256","internalType":"Timelocks"}]},{"name":"order","type":"tuple","internalType":"struct IOrderMixin.Order","components":[{"name":"salt","type":"uint256","internalType":"uint256"},{"name":"maker","type":"uint256","internalType":"Address"},{"name":"receiver","type":"uint256","internalType":"Address"},{"name":"makerAsset","type":"uint256","internalType":"Address"},{"name":"takerAsset","type":"uint256","internalType":"Address"},{"name":"makingAmount","type":"uint256","internalType":"uint256"},{"name":"takingAmount","type":"uint256","internalType":"uint256"},{"name":"makerTraits","type":"uint256","internalType":"MakerTraits"}]},{"name":"r","type":"bytes32","internalType":"bytes32"},{"name":"vs","type":"bytes32","internalType":"bytes32"},{"name":"amount","type":"uint256","internalType":"uint256"},{"name":"takerTraits","type":"uint256","internalType":"TakerTraits"},{"name":"args","type":"bytes","internalType":"bytes"}],"outputs":[],"stateMutability":"payable"},{"type":"function","name":"owner","inputs":[],"outputs":[{"name":"","type":"address","internalType":"address"}],"stateMutability":"view"},{"type":"function","name":"renounceOwnership","inputs":[],"outputs":[],"stateMutability":"nonpayable"},{"type":"function","name":"transferOwnership","inputs":[{"name":"newOwner","type":"address","internalType":"address"}],"outputs":[],"stateMutability":"nonpayable"},{"type":"function","name":"withdraw","inputs":[{"name":"escrow","type":"address","internalType":"contract IEscrow"},{"name":"secret","type":"bytes32","internalType":"bytes32"},{"name":"immutables","type":"tuple","internalType":"struct IBaseEscrow.Immutables","components":[{"name":"orderHash","type":"bytes32","internalType":"bytes32"},{"name":"hashlock","type":"bytes32","internalType":"bytes32"},{"name":"maker","type":"uint256","internalType":"Address"},{"name":"taker","type":"uint256","internalType":"Address"},{"name":"token","type":"uint256","internalType":"Address"},{"name":"amount","type":"uint256","internalType":"uint256"},{"name":"safetyDeposit","type":"uint256","internalType":"uint256"},{"name":"timelocks","type":"uint256","internalType":"Timelocks"}]}],"outputs":[],"stateMutability":"nonpayable"},{"type":"event","name":"OwnershipTransferred","inputs":[{"name":"previousOwner","type":"address","indexed":true,"internalType":"address"},{"name":"newOwner","type":"address","indexed":true,"internalType":"address"}],"anonymous":false},{"type":"error","name":"InvalidLength","inputs":[]},{"type":"error","name":"LengthMismatch","inputs":[]},{"type":"error","name":"NativeTokenSendingFailure","inputs":[]},{"type":"error","name":"OwnableInvalidOwner","inputs":[{"name":"owner","type":"address","internalType":"address"}]},{"type":"error","name":"OwnableUnauthorizedAccount","inputs":[{"name":"account","type":"address","internalType":"address"}]}],"bytecode":{"object":"0x60c06040523462000051576200001f62000018620001b6565b91620001de565b6200002962000057565b611776620003e88239608051818181610c0f01526112e6015260a051816113e1015261177690f35b6200005d565b60405190565b5f80fd5b601f801991011690565b634e487b7160e01b5f52604160045260245ffd5b906200008b9062000061565b810190811060018060401b03821117620000a457604052565b6200006b565b90620000c1620000b962000057565b92836200007f565b565b5f80fd5b60018060a01b031690565b620000dd90620000c7565b90565b620000eb90620000d2565b90565b620000f981620000e0565b036200010157565b5f80fd5b905051906200011482620000ee565b565b6200012190620000d2565b90565b6200012f8162000116565b036200013757565b5f80fd5b905051906200014a8262000124565b565b6200015781620000d2565b036200015f57565b5f80fd5b9050519062000172826200014c565b565b9091606082840312620001b057620001ad62000193845f850162000105565b93620001a381602086016200013b565b9360400162000163565b90565b620000c3565b620001d962001b5e80380380620001cd81620000aa565b92833981019062000174565b909192565b9091620001eb906200024f565b60805260a052565b90565b90565b620002126200020c6200021892620001f3565b620001f6565b620000c7565b90565b6200022690620001f9565b90565b6200023490620000d2565b9052565b91906200024d905f6020850194019062000229565b565b806200027062000269620002635f6200021b565b620000d2565b91620000d2565b14620002835762000281906200037c565b565b620002b3620002925f6200021b565b6200029c62000057565b918291631e4fbdf760e01b83526004830162000238565b0390fd5b5f1c90565b60018060a01b031690565b620002d6620002dc91620002b7565b620002bc565b90565b620002eb9054620002c7565b90565b5f1b90565b906200030660018060a01b0391620002ee565b9181191691161790565b62000329620003236200032f92620000c7565b620001f6565b620000c7565b90565b6200033d9062000310565b90565b6200034b9062000332565b90565b90565b906200036b62000365620003739262000340565b6200034e565b8254620002f3565b9055565b5f0190565b620003875f620002df565b62000393825f62000351565b90620003cb620003c47f8be0079c531659141344cd1fd0a4f28419497f9722a3daafe3b4186f6b6457e09362000340565b9162000340565b91620003d662000057565b80620003e28162000377565b0390a356fe60806040526004361015610015575b366105f657005b61001f5f3561009e565b80631f3177ba146100995780632c3c9a3714610094578063318b05621461008f578063715018a61461008a5780638da5cb5b14610085578063a4fc705a14610080578063ca2182761461007b5763f2fde38b0361000e576105c3565b61054f565b610414565b6103b1565b61035c565b610323565b61029a565b6101a4565b60e01c90565b60405190565b5f80fd5b5f80fd5b5f80fd5b5f80fd5b5f80fd5b5f80fd5b909182601f830112156100fc5781359167ffffffffffffffff83116100f75760200192602083028401116100f257565b6100be565b6100ba565b6100b6565b909182601f8301121561013b5781359167ffffffffffffffff831161013657602001926020830284011161013157565b6100be565b6100ba565b6100b6565b909160408284031261019a575f82013567ffffffffffffffff8111610195578361016b9184016100c2565b929093602082013567ffffffffffffffff81116101905761018c9201610101565b9091565b6100b2565b6100b2565b6100ae565b5f0190565b346101d6576101c06101b7366004610140565b929190916108e4565b6101c86100a4565b806101d28161019f565b0390f35b6100aa565b60018060a01b031690565b6101ef906101db565b90565b6101fb906101e6565b90565b610207816101f2565b0361020e57565b5f80fd5b9050359061021f826101fe565b565b90565b61022d81610221565b0361023457565b5f80fd5b9050359061024582610224565b565b5f80fd5b908161010091031261025a5790565b610247565b9091610140828403126102955761029261027b845f8501610212565b936102898160208601610238565b9360400161024b565b90565b6100ae565b346102c9576102b36102ad36600461025f565b91610b2f565b6102bb6100a4565b806102c58161019f565b0390f35b6100aa565b90565b6102da816102ce565b036102e157565b5f80fd5b905035906102f2826102d1565b565b91906101208382031261031e578061031161031b925f860161024b565b93610100016102e5565b90565b6100ae565b6103376103313660046102f4565b90610cb7565b61033f6100a4565b806103498161019f565b0390f35b5f91031261035757565b6100ae565b3461038a5761036c36600461034d565b610374610d10565b61037c6100a4565b806103868161019f565b0390f35b6100aa565b610398906101e6565b9052565b91906103af905f6020850194019061038f565b565b346103e1576103c136600461034d565b6103dd6103cc610d4f565b6103d46100a4565b9182918261039c565b0390f35b6100aa565b91906101208382031261040f578061040361040c925f8601610212565b9360200161024b565b90565b6100ae565b346104435761042d6104273660046103e6565b90610d7a565b6104356100a4565b8061043f8161019f565b0390f35b6100aa565b90816101009103126104575790565b610247565b610465816102ce565b0361046c57565b5f80fd5b9050359061047d8261045c565b565b909182601f830112156104b95781359167ffffffffffffffff83116104b45760200192600183028401116104af57565b6100be565b6100ba565b6100b6565b906102a08282031261054a576104d6815f840161024b565b926104e5826101008501610448565b926104f4836102008301610238565b92610503816102208401610238565b926105128261024085016102e5565b92610521836102608301610470565b9261028082013567ffffffffffffffff811161054557610541920161047f565b9091565b6100b2565b6100ae565b61056c61055d3660046104be565b969590959491949392936114cc565b6105746100a4565b8061057e8161019f565b0390f35b61058b816101e6565b0361059257565b5f80fd5b905035906105a382610582565b565b906020828203126105be576105bb915f01610596565b90565b6100ae565b346105f1576105db6105d63660046105a5565b61154a565b6105e36100a4565b806105ed8161019f565b0390f35b6100aa565b5f80fd5b9061060e939291610609611555565b6107f4565b565b5090565b5090565b90565b90565b61063261062d61063792610618565b61061b565b6102ce565b90565b600161064691016102ce565b90565b634e487b7160e01b5f52603260045260245ffd5b919081101561066d576020020190565b610649565b3561067c81610582565b90565b5f80fd5b5f80fd5b5f80fd5b9035906001602003813603038212156106cd570180359067ffffffffffffffff82116106c8576020019160018202360383136106c357565b610687565b610683565b61067f565b908210156106ed5760206106e9920281019061068b565b9091565b610649565b905090565b90825f939282370152565b90918261071281610719936106f2565b80936106f7565b0190565b909161072892610702565b90565b601f801991011690565b634e487b7160e01b5f52604160045260245ffd5b906107539061072b565b810190811067ffffffffffffffff82111761076d57604052565b610735565b9061078561077e6100a4565b9283610749565b565b67ffffffffffffffff81116107a5576107a160209161072b565b0190565b610735565b906107bc6107b783610787565b610772565b918252565b606090565b3d5f146107e1576107d63d6107aa565b903d5f602084013e5b565b6107e96107c1565b906107df565b151590565b929192610802818390610610565b9461080e828490610610565b61082a61082461081f888890610614565b6102ce565b916102ce565b036108c1576108385f61061e565b5b8061084c610846896102ce565b916102ce565b10156108b8576108a15f8061086b6108668789879161065d565b610672565b816108788b8b88916106d2565b919061088e6108856100a4565b9384928361071d565b03925af161089a6107c6565b50156107ef565b6108b3576108ae9061063a565b610839565b6115aa565b50945050505050565b6108c96100a4565b631fec674760e31b8152806108e06004820161019f565b0390fd5b906108f09392916105fa565b565b61090661090161090b926101db565b61061b565b6101db565b90565b610917906108f2565b90565b6109239061090e565b90565b5f80fd5b60e01b90565b5f91031261093a57565b6100ae565b61094890610221565b9052565b5061095b906020810190610238565b90565b61096790610221565b9052565b610974816102ce565b0361097b57565b5f80fd5b9050359061098c8261096b565b565b5061099d90602081019061097f565b90565b6109b46109af6109b9926102ce565b61061b565b6102ce565b90565b6109c5906109a0565b9052565b506109d89060208101906102e5565b90565b6109e4906102ce565b9052565b6109f1816102ce565b036109f857565b5f80fd5b90503590610a09826109e8565b565b50610a1a9060208101906109fc565b90565b610a26906109a0565b9052565b9060e0610af1610af993610a4c610a435f83018361094c565b5f86019061095e565b610a66610a5c602083018361094c565b602086019061095e565b610a80610a76604083018361098e565b60408601906109bc565b610a9a610a90606083018361098e565b60608601906109bc565b610ab4610aaa608083018361098e565b60808601906109bc565b610ace610ac460a08301836109c9565b60a08601906109db565b610ae8610ade60c08301836109c9565b60c08601906109db565b82810190610a0b565b910190610a1d565b565b916020610b1d929493610b166101208201965f83019061093f565b0190610a2a565b565b610b276100a4565b3d5f823e3d90fd5b610b389061091a565b916323305703919092803b15610bb357610b655f8094610b70610b596100a4565b9788968795869461092a565b845260048401610afb565b03925af18015610bae57610b82575b50565b610ba1905f3d8111610ba7575b610b998183610749565b810190610930565b5f610b7f565b503d610b8f565b610b1f565b610926565b90610bca91610bc5611555565b610c0a565b565b610bd59061090e565b90565b610be1906102ce565b9052565b91610100610c08929493610c016101208201965f830190610a2a565b0190610bd8565b565b610c337f0000000000000000000000000000000000000000000000000000000000000000610bcc565b9163dea024e434939093929193813b15610cb2575f93610c6491610c6f610c586100a4565b9788968795869461092a565b845260048401610be5565b03925af18015610cad57610c81575b50565b610ca0905f3d8111610ca6575b610c988183610749565b810190610930565b5f610c7e565b503d610c8e565b610b1f565b610926565b90610cc191610bb8565b565b610ccb611555565b610cd3610cfd565b565b610ce9610ce4610cee92610618565b61061b565b6101db565b90565b610cfa90610cd5565b90565b610d0e610d095f610cf1565b611604565b565b610d18610cc3565b565b5f90565b5f1c90565b60018060a01b031690565b610d3a610d3f91610d1e565b610d23565b90565b610d4c9054610d2e565b90565b610d57610d1a565b50610d615f610d42565b90565b9190610d78905f6101008501940190610a2a565b565b610d839061091a565b906390d3252f90823b15610dfd57610dba92610daf5f8094610da36100a4565b9687958694859361092a565b835260048301610d64565b03925af18015610df857610dcc575b50565b610deb905f3d8111610df1575b610de38183610749565b810190610930565b5f610dc9565b503d610dd9565b610b1f565b610926565b90610e1a97969594939291610e15611555565b6112a9565b565b5f80fd5b919061010083820312610ec857610ec190610e3c610100610772565b93610e49825f8301610238565b5f860152610e5a8260208301610238565b6020860152610e6c826040830161097f565b6040860152610e7e826060830161097f565b6060860152610e90826080830161097f565b6080860152610ea28260a083016102e5565b60a0860152610eb48260c083016102e5565b60c086015260e0016109fc565b60e0830152565b610e1c565b610ed8903690610e20565b90565b35610ee5816109e8565b90565b90610ef2906102ce565b9052565b90505190610f0382610582565b565b90602082820312610f1e57610f1b915f01610ef6565b90565b6100ae565b9060e080610fb193610f3b5f8201515f86019061095e565b610f4d6020820151602086019061095e565b610f5f604082015160408601906109bc565b610f71606082015160608601906109bc565b610f83608082015160808601906109bc565b610f9560a082015160a08601906109db565b610fa760c082015160c08601906109db565b0151910190610a1d565b565b9190610fc7905f6101008501940190610f23565b565b610fd390516102ce565b90565b610fe15f80926106f2565b0190565b610fee90610fd6565b90565b90565b61100861100361100d92610ff1565b61061b565b6102ce565b90565b60601b90565b61101f90611010565b90565b61102b90611016565b90565b61103a61103f916101e6565b611022565b9052565b8061105460149261105b969461102e565b0191610702565b90565b6110679061090e565b90565b90505190611077826102d1565b565b9050519061108682610224565b565b90916060828403126110bd576110ba6110a3845f850161106a565b936110b1816020860161106a565b93604001611079565b90565b6100ae565b6110cb816102ce565b036110d257565b5f80fd5b905035906110e3826110c2565b565b506110f49060208101906110d6565b90565b611100906109a0565b9052565b9060e06111cb6111d39361112661111d5f8301836109c9565b5f8601906109db565b611140611136602083018361098e565b60208601906109bc565b61115a611150604083018361098e565b60408601906109bc565b61117461116a606083018361098e565b60608601906109bc565b61118e611184608083018361098e565b60808601906109bc565b6111a861119e60a08301836109c9565b60a08601906109db565b6111c26111b860c08301836109c9565b60c08601906109db565b828101906110e5565b9101906110f7565b565b6111de906109a0565b9052565b5190565b60209181520190565b5f5b838110611201575050905f910152565b8060209183015181850152016111f1565b61123161123a60209361123f93611228816111e2565b938480936111e6565b958691016111ef565b61072b565b0190565b926112a6969461128261128d926112776112989699959961126c6101a08a019b5f8b0190611104565b61010089019061093f565b61012087019061093f565b610140850190610bd8565b6101608301906111d5565b610180818403910152611212565b90565b93959692969491946112dc6112d36112cc60e06112c589610ecd565b9801610edb565b42906116f0565b60e08701610ee8565b611334602061130a7f0000000000000000000000000000000000000000000000000000000000000000610bcc565b63fb6bd47e90611329899261131d6100a4565b9586948593849361092a565b835260048301610fb3565b03915afa80156114c7575f8091611381938291611499575b509761135b60c08a9201610fc9565b6113636100a4565b908161136e81610fe5565b03925af161137a6107c6565b50156107ef565b61147657606096611426946113dc611431936113cd6113b66113a35f996109a0565b6113b0600160fb1b610ff4565b176109a0565b9991936113c16100a4565b94859360208501611043565b60208201810382520382610749565b6114057f000000000000000000000000000000000000000000000000000000000000000061105e565b9663f497df7594989a9290919261141a6100a4565b9b8c9a8b998a9861092a565b885260048801611243565b03925af1801561147157611443575b50565b6114639060603d811161146a575b61145b8183610749565b810190611088565b5050611440565b503d611451565b610b1f565b61147e6100a4565b638a0332d560e01b8152806114956004820161019f565b0390fd5b6114ba915060203d81116114c0575b6114b28183610749565b810190610f05565b5f61134c565b503d6114a8565b610b1f565b906114dc97969594939291610e02565b565b6114ef906114ea611555565b6114f1565b565b8061150c6115066115015f610cf1565b6101e6565b916101e6565b1461151c5761151a90611604565b565b6115466115285f610cf1565b6115306100a4565b918291631e4fbdf760e01b83526004830161039c565b0390fd5b611553906114de565b565b61155d610d4f565b61157661157061156b611733565b6101e6565b916101e6565b0361157d57565b6115a6611588611733565b6115906100a4565b91829163118cdaa760e01b83526004830161039c565b0390fd5b6040513d5f823e3d90fd5b5f1b90565b906115cb60018060a01b03916115b5565b9181191691161790565b6115de9061090e565b90565b90565b906115f96115f4611600926115d5565b6115e1565b82546115ba565b9055565b61160d5f610d42565b611617825f6115e4565b9061164b6116457f8be0079c531659141344cd1fd0a4f28419497f9722a3daafe3b4186f6b6457e0936115d5565b916115d5565b916116546100a4565b8061165e8161019f565b0390a3565b5f90565b90565b61167e61167961168392611667565b61061b565b6102ce565b90565b61169663ffffffff60e01b61166a565b90565b90565b6116b06116ab6116b592611699565b61061b565b6102ce565b90565b6116c260e061169c565b90565b1b90565b6116e8906116e26116dc6116ed946102ce565b916102ce565b906116c5565b6102ce565b90565b9061172a61170961173093611703611663565b506109a0565b61171a611714611686565b196102ce565b16916117246116b8565b906116c9565b176109a0565b90565b61173b610d1a565b50339056fea2646970667358221220b56a18d9a794e4a808f3c06cc860d9087ff41f8313ee6e6ae66934df0692804c64736f6c63430008170033","linkReferences":{}},"methodIdentifiers":{"arbitraryCalls(address[],bytes[])":"1f3177ba","cancel(address,(bytes32,bytes32,uint256,uint256,uint256,uint256,uint256,uint256))":"a4fc705a","deployDst((bytes32,bytes32,uint256,uint256,uint256,uint256,uint256,uint256),uint256)":"318b0562","deploySrc((bytes32,bytes32,uint256,uint256,uint256,uint256,uint256,uint256),(uint256,uint256,uint256,uint256,uint256,uint256,uint256,uint256),bytes32,bytes32,uint256,uint256,bytes)":"ca218276","owner()":"8da5cb5b","renounceOwnership()":"715018a6","transferOwnership(address)":"f2fde38b","withdraw(address,bytes32,(bytes32,bytes32,uint256,uint256,uint256,uint256,uint256,uint256))":"2c3c9a37"},"id":0}